:1000000000800020B1010000DD010000DD010000E2
:10001000DD010000DD010000DD010000DD01000068
:10002000DD010000DD010000DD010000DD01000058
:10003000DD010000DD010000DD010000DD01000048
:10004000FD0F0000DD010000512D0000DD0100006A
:10005000DD010000DD010000DD010000DD01000028
:10006000DD010000DD010000DD010000DD01000018
:10007000DD010000DD010000DD010000DD01000008
:10008000DD010000DD010000DD010000DD010000F8
:10009000DD010000DD010000DD010000DD010000E8
:1000A000DD010000DD010000D92C0000DD010000B1
:1000B000DD010000DD010000DD010000DD010000C8
:1000C000DD010000DD010000DD010000DD010000B8
:1000D000DD010000DD010000DD010000DD010000A8
:1000E00010B5054C237833B9044B13B10448AFF372
:1000F00000800123237010BD780000200000000064
:10010000A42F0000084B10B51BB108480849AFF3F5
:1001100000800848036803B910BD074B002BFBD0D3
:10012000BDE81040184700BF00000000A42F0000E9
:100130007C0000207400002000000000154B002B04
:1001400008BF134B9D46A3F5803A00218B460F460E
:100150001348144A121A02F0EBFE0F4B002B00D08A
:1001600098470E4B002B00D0984700200021040038
:100170000D000D48002802D00C48AFF3008002F0BB
:10018000B1FE2000290002F07DFE02F097FE00BFC4
:1001900000000800008000200000000000000000B7
:1001A00078000020E40000200000000000000000B3
:1001B000064880470649074A074B9A42BEBF51F896
:1001C000040B42F8040BF8E7FFF7B8FF5D030000EB
:1001D000B02F00000000002078000020FEE700BFE4
:1001E00080B400AF044BDB6C1B0EDBB21846BD467F
:1001F0005DF8047B704700BFB081E00F80B582B02E
:1002000000AF00F01FF87860074B5B6803F00F0346
:100210001A467B68D3407B60044A7B6813607B6826
:1002200018460837BD4680BD00800C40A000002065
:1002300080B400AF024B1846BD465DF8047B7047A2
:10024000006CDC0280B582B000AF334BDB6A03F494
:100250007053B3F5805F0AD0B3F5005F03D0B3F5F8
:10026000006F08D00BE02D4B1B687B6047E04FF41C
:1002700000437B6043E02A4B1B687B603FE0264BDA
:10028000DB6803F4E063B3F5007F1BD0B3F5007FB8
:1002900005D8002B24D0B3F5807F16D02BE0B3F522
:1002A000806F09D0B3F5A06F03D0B3F5407F06D0BF
:1002B00021E01C4B7B6021E01B4B7B601EE01B4B55
:1002C0007B601BE01A4B7B6018E0FFF789FF034659
:1002D000122B02D9174B7B6010E0174B7B600DE0AF
:1002E000FFF77EFF0346122B02D9144B7B6005E01B
:1002F000134B7B6002E000237B6000BF00BF064B16
:100300001B6803F4E0339B0B01337A68B2FBF3F311
:1003100018460837BD4680BD00800C400400002010
:1003200000000020003FAB01406F4001809FD500DE
:10033000C0D8A70040B56400C0CF6A00804F12004B
:1003400040420F0080B400AF034B1B681846BD4607
:100350005DF8047B704700BF0000002080B400AF50
:10036000BD465DF8047B704780B400AF4FF4004396
:100370001846BD465DF8047B704700BF80B400AFEF
:100380004FF47A731846BD465DF8047B704700BF92
:1003900080B400AF034B1B681846BD465DF8047B74
:1003A000704700BF0400002080B487B000AFF86041
:1003B000B9607A60FB6803F10473DA00BB68134428
:1003C0009B007B617B697A681A601C37BD465DF8CB
:1003D000047B704780B485B000AF786039607B687B
:1003E00003F10473DA003B6813449B00FB60FB6875
:1003F0001B6818461437BD465DF8047B704700BF84
:1004000080B485B000AF78607B68002B04D07B6837
:10041000B3F5004F00D800BF7B68B3FA83F3C3F194
:100420001F03FB60FB6818461437BD465DF8047B6C
:10043000704700BF80B400AF044BDB6C1B0EDBB217
:100440001846BD465DF8047B704700BFB081E00FE1
:1004500080B400AF054BDB6C03F47F031B0CDBB2F5
:100460001846BD465DF8047B704700BFB081E00FC1
:1004700080B582B000AFFFF7EBFF03464A2B04D0F4
:10048000792B02D0482B21D022E0144B1B699BB260
:1004900003F03F039BB21B02FB80104B9B6903F0F0
:1004A000F0039AB2FB881343FB800C4BDB6903F02B
:1004B000F0031B099AB2FB881343FB80FB88B3F55A
:1004C000017F01D3064B04E0064B02E0054B00E040
:1004D000002318460837BD4680BD00BFD0FF0FE09F
:1004E00000366E010048E80180B584B000AF786046
:1004F00039607A683B689A428CBF01230023DBB2E3
:10050000FB6006481E21FA68FFF74EFF04480821E9
:10051000FA68FFF749FF1037BD4680BD00800C40E8
:1005200004800C4080B582B000AF07481E21FFF761
:1005300051FF786005480821FFF74CFF38607B6861
:1005400018460837BD4680BD00800C4004800C4032
:1005500080B582B000AF214B5B6903F4E063B3F573
:10056000007F1CD0B3F5007F05D8002B25D0B3F554
:10057000807F1FD02AE0B3F5C06F24D0B3F5E06FC1
:100580001ED0B3F5407F21D1FFF754FF0346122B55
:1005900002D9134B7B601CE0124B7B6019E0FFF724
:1005A00049FF0346122B02D90F4B7B6011E00F4B22
:1005B0007B600EE00E4B7B600BE00E4B7B6008E037
:1005C0000D4B7B6005E00D4B7B6002E000237B6000
:1005D00000BF7B6818460837BD4680BD00800C40D0
:1005E000804F120040420F0040B56400C0CF6A0047
:1005F000C0D8A700809FD500406F4001003FAB01ED
:1006000080B582B000AF0D4800F08EFA0346FB7053
:10061000FB78072B05D0082B07D1FFF713FE786076
:1006200006E0FFF795FF786002E000237B6000BFE3
:100630007B6818460837BD4680BD00BF06000C0029
:1006400080B485B000AF7860284BDB6B002B14BF03
:1006500001230023BB72254B41F67132DA63234B31
:100660005B6803F00703FB60FB68012B01D9042BD7
:1006700002D10023FB7202E00123FB7200BF7B6802
:100680001B4A934207D9FB7A002B01D0052300E0D7
:100690000423FB6016E07B68154A93420BD87B6805
:1006A000144A934207D9FB7A002B01D0032300E0C0
:1006B0000123FB6006E0FB7A002B01D0022300E05F
:1006C0000023FB600949094B5B6823F00702FB68C4
:1006D00013434B60BB7A002B02D0044B0022DA6339
:1006E0001437BD465DF8047B704700BF00000C4026
:1006F0000048E8010024F40080B500AFFFF798FD42
:1007000003461846FFF79CFF80BD00BF90B585B03B
:1007100000AF78600023BB607B68344A934203D00B
:10072000334A934200D000E000BF786800F0FCF943
:100730000346FB607B682D4A934203D02C4A9342C8
:1007400006D00CE02B4B9B6A03F00303FB6006E032
:10075000284B9B6A03F00C039B08FB6000BFFB68FF
:10076000032B3AD801A252F823F000BFA3070000E0
:100770007D070000850700008D070000FFF7F4FDEE
:10078000B8602DE0FFF704FEB86029E0FFF736FD02
:100790000446FFF7C7FE0346013324FA03F3BB60A8
:1007A0001EE00023BB607B68104A934203D07B6845
:1007B0000F4A934210D10F4B9A6A7B680B498B42C8
:1007C00001D1102300E0142322FA03F3002B03D0FD
:1007D000FFF7D4FDB86003E002E00023BB6000BF78
:1007E000BB6818461437BD4690BD00BF02001A0012
:1007F00003001C0000800C4080B483B000AF786020
:10080000094B5B6D03F00103002B00D006E000BF35
:10081000054B1A6D7B681340002BF9D10C37BD4690
:100820005DF8047B704700BF00800C4080B582B04B
:1008300000AF104800F078F90346FB70FB78032BFB
:1008400007D0082B09D0022B0BD1FFF7A1FD786050
:100850000AE0FFF789FD786006E0FFF7F3FC7860B7
:1008600002E000237B6000BF7B6818460837BD4666
:1008700080BD00BF0723220090B587B000AF78602D
:100880000B46FB7000233B617B681B0A03F00F03E0
:10089000013B092B49D801A252F823F0E1080000DE
:1008A000E7080000C50800002B0900002B09000024
:1008B000ED080000F70800002B0900002B090000DC
:1008C000010900001B4B7B611B4800F041F8044606
:1008D000FFF7CEFD034620461946FFF705FE12E05E
:1008E000164B7B610FE0164B7B610CE0154B7B6177
:1008F00001233B6107E0144B7B6110233B6102E065
:10090000124B7B6100BF7B681B0B03F01F03FB6076
:100910003B69002B02D03869FFF76EFFFB787869DE
:10092000F9681A46FFF740FD00E000BF1C37BD46DE
:1009300090BD00BF40800C400043020008800C4086
:1009400044800C4058800C4060800C4078800C4003
:1009500090B585B000AF78607B6803F47813B3F589
:10096000B01F00F0AB80B3F5B01F1AD8B3F5402F1D
:1009700000F0BF80B3F5402F08D8B3F5003F3CD05E
:10098000B3F5802F2DD0002B27D0BEE0B3F5801F0C
:100990003CD0B3F5A01F47D0B3F5602F00F0AD8079
:1009A000B3E0B3F5081F00F0AC80B3F5081F0AD818
:1009B000B3F5D01F25D0B3F5E01F7AD0B3F5C01F33
:1009C00000F08980A1E0B3F5201F4ED0B3F5281FB9
:1009D00062D0B3F5181F35D097E0FFF733FCF8600D
:1009E00096E0FFF72FFCF8604C4B9B6803F00F0379
:1009F0001A46FB68D340FB608AE0FFF7FFFBF86014
:100A000086E04748FFF782FEF86081E04448FFF740
:100A10007DFEF860414B9B6E03F0F0031B091A4604
:100A2000FB68D340FB6073E03D48FFF76FFEF86062
:100A30003A4B9B6E03F470631B0A1A46FB68D34063
:100A4000FB6065E03648FFF761FEF860334B9B6E54
:100A500003F440531C0B1020FFF7D2FC0346234441
:100A60001A46FB68D340FB6052E02D48FFF74EFE6C
:100A7000F8602A4B9B6E03F440531B0B1A46FB682D
:100A8000D340FB60254BDB6F03F007030133FA68AB
:100A9000B2FBF3F3FB603BE02148FFF737FEF86061
:100AA0001E4B9B6E03F003031A46FB68D340FB60AA
:100AB0002EE01C48FFF72AFEF86029E01948FFF7EE
:100AC00025FEF860154B1B6F03F003031A46FB6805
:100AD000D340FB601CE01348FFF718FEF8600F4B93
:100AE0001B6F03F030031B091A46FB68D340FB6001
:100AF0000EE0FFF785FDF8600AE0FFF729FDF860DA
:100B000006E0FFF793FEF86002E00023FB6000BF01
:100B1000FB6818461437BD4690BD00BF00800C40EE
:100B200002001A0003001C0080B485B000AF78609A
:100B30000123FB737B6803F00F03BB60BB68013BC1
:100B4000062B00F2938001A252F823F0690B0000FB
:100B50009F0B0000DB0B00006D0C00006D0C000013
:100B6000170C0000390C0000454BDB6A03F470538E
:100B7000B3F5805F09D0B3F5005F03D0B3F5006F24
:100B800006D008E00223FB7308E00323FB7305E0B3
:100B90000423FB7302E00523FB7300BF69E0384BBD
:100BA0009B6A03F00303022B06D0032B07D0012B13
:100BB00008D10323FB730FE00223FB730CE0062331
:100BC000FB7309E02E4B9B6A03F48033002B02D0A9
:100BD0000923FB7300E000BF4BE0294B9B6A03F045
:100BE0000C03082B06D00C2B07D0042B08D10323B1
:100BF000FB730FE00223FB730CE00623FB7309E099
:100C00001F4B9B6A03F48013002B02D00923FB7354
:100C100000E000BF2DE01A4B1B6803F08053002B4F
:100C200003D0B3F1805F03D023E00723FB7302E01E
:100C30000823FB7300BF1CE0114BDB6A03F4603335
:100C4000B3F5803F08D0B3F5003F08D0B3F5004FAF
:100C500008D10823FB7308E00223FB7305E003239C
:100C6000FB7302E00123FB7300BF02E00023FB7370
:100C700000BFFB7B18461437BD465DF8047B704708
:100C800000800C4090B589B000AF78600B46FB70D7
:100C90000323FB610323FB7600233B617B6803F0A6
:100CA0000F03FB60FB68013B062B00F2348101A2BD
:100CB00052F823F0D10C0000BD0D0000BD0D000066
:100CC000170F0000170F0000850E0000AF0E000088
:100CD000FB78023B072B00F2228101A252F823F09D
:100CE000010D00000B0D0000150D00005F0D000050
:100CF0001F0F00001F0F00001F0F00001F0F00003C
:100D00000423FB610023FB7639E00323FB6101230D
:100D1000FB7634E00223FB610223FB76FFF7A8FB9E
:100D200003465C1CFFF7A4FB034620461946FFF769
:100D3000DBFBFFF707FB02467C4B9A4206D97C4A55
:100D40007B4B1B6843F06003136018E0784A784BD4
:100D50001B6823F0600343F0200313600FE00123BE
:100D6000FB610323FB76FFF783FB03465C1CFFF765
:100D70007FFB034620461946FFF7B6FB00BFFB7E0C
:100D800018460121012200F0D9F8FFF7B5FC684AA6
:100D9000FB6953626748FFF7DBFD0446FFF768FB1A
:100DA000034620461946FFF79FFB00F093F9FFF733
:100DB00025FAB860B868FFF743FCADE0FB78013B6B
:100DC000082B00F2AE8001A252F823F0F10D0000D2
:100DD000F70D0000070E0000230F0000230F000096
:100DE000170E0000230F0000230F00003B0E000031
:100DF00000237B6126E000200121012200F09EF803
:100E000002237B611EE001200121012200F096F8FF
:100E100001237B6116E0FFF7F1F9B860FFF728FBCB
:100E20000346B8681946FFF75FFB434804210122D7
:100E3000FFF7BAFA03237B6104E000237B610123FF
:100E40003B6100BFFB68022B0DD13949384B9B6ACF
:100E500023F4803323F003037A691A433B691B04AC
:100E600013438B6258E03249314B9B6A23F4801361
:100E700023F00C037A6992001A433B691B05134364
:100E80008B6249E0FB78072B02D0082B07D049E0A2
:100E9000274A274B1B6823F08053136006E0244A3F
:100EA000234B1B6843F08053136000BF34E0FB7892
:100EB000032B14D0082B22D0022B00D032E00020CC
:100EC0000121012200F03AF8194B40225A6200BF7A
:100ED000174BDB6A03F48033002BF9D01AE00120B2
:100EE0000121012200F02AF8114B60225A6200BF52
:100EF0000F4BDB6A03F40033002BF9D00AE00C4BF4
:100F000020225A6200BF0A4BDB6A03F40043002B25
:100F1000F9D000BF00E000BFFFF704FB02E000BF14
:100F200000E000BF2437BD4690BD00BF0048E80187
:100F300000800C400043020040800C4080B586B029
:100F400000AF0346FB710B46BB7113467B71FB7907
:100F5000042B4AD801A252F823F000BFA90F0000C9
:100F60009B0F00007F0F0000710F00008D0F00002D
:100F700001233B610223FB6001237B611DE004230D
:100F80003B610823FB6003237B6116E010233B6178
:100F90002023FB6005237B610FE040233B6180231E
:100FA000FB6007237B6108E04FF480733B614FF4E3
:100FB0000073FB6009237B6100BFBB79002B0ED05F
:100FC0000C4A3B6913627B79002B0BD000BF0A48A7
:100FD0007969FFF7FFF90346002BF8D002E0054AD4
:100FE000FB68136200F076F800E000BF1837BD46DA
:100FF00080BD00BF00800C402C800C4080B58AB0C2
:1010000000AF334B03F580531B68BB61304B03F5D6
:1010100080530C331B68BA691340BB612C4B9B6B2C
:101020007B61BA697B6913403B620023FB6149E045
:1010300000237B623BE03B6A03F00103002B30D0CE
:10104000234B9B683B6101227B6A02FA03F3FB603E
:101050001F4B03F580530833FA681A607B6A1B0143
:101060003A691344DB68BB60BB68002B19D0BB68CE
:101070001B7A7B60BB681B7A83F00103DAB2BB6822
:101080001A72BB681B68002B0BD0BB681B68786AA0
:101090007A68002A14BF01220022D1B2BA685268CD
:1010A00098473B6A5B083B627B6A01337B623B6A21
:1010B000002BC0D17B69DA43BB6913403B62FB69FB
:1010C0000133FB61FB69012BB2DD2837BD4680BDD2
:1010D00000200C4080B400AF034BDB6A034A13606E
:1010E000BD465DF8047B704700800C4094000020F2
:1010F00080B483B000AF03463960FB71FB79002BED
:101100000DD0FB79012B0AD0FB79022B07D0FB799C
:10111000032B04D0FB79042B01D0FB79052B094963
:10112000FA793B68012000FA03F318461346DB0006
:1011300013449B000B44103358600C37BD465DF8D8
:10114000047B70470060004080B483B000AF03466A
:101150003960FB71FB79002B0DD0FB79012B0AD094
:10116000FB79022B07D0FB79032B04D0FB79042BEE
:1011700001D0FB79052B0949FA793B68012000FA77
:1011800003F318461346DB0013449B000B44103353
:1011900018600C37BD465DF8047B70470060004066
:1011A00090B585B000AFB9607B600346FB73134612
:1011B000BB73FB7B002B0DD0FB7B012B0AD0FB7B91
:1011C000022B07D0FB7B032B04D0FB7B042B01D02D
:1011D000FB7B052BBB7B002B0DD07B68002B05D048
:1011E000FB7B1846B968FFF7AFFF04E0FB7B1846AE
:1011F000B968FFF77DFFBB68072B1CD82A4CFA7B28
:101200002948F97B0B46DB000B449B0003445B68D9
:10121000B968890008460F218140C9430B40B97B5A
:10122000B8688000814019431346DB0013449B00DB
:101230002344596024E01C4CFA7B1B48F97B0B4685
:10124000DB000B449B00034408331968BB6803F1BF
:101250008043083B9B0018460F238340DB43194023
:10126000B87BBB6803F18043083B9B0000FA03F3A3
:1012700019431346DB0013449B00234408331960D1
:10128000BB7B002B0DD17B68002B05D0FB7B184668
:10129000B968FFF759FF04E0FB7B1846B968FFF710
:1012A00027FF1437BD4690BD0060004080B487B072
:1012B00000AFF860B9607A60FB6803F10473DA008C
:1012C000BB6813449B007B617B697A681A601C379A
:1012D000BD465DF8047B704780B485B000AFF86010
:1012E000B9607A60FB681A68BB68DB431A407B68A8
:1012F0001A43FB681A601437BD465DF8047B7047DB
:1013000080B588B000AFF860B9607A60FB707B6828
:10131000002B00D15EE0FB681B6823F44072FB6881
:101320001A60FA68FB781B0210464FF440711A46A7
:10133000FFF7D2FFBB68002B03D12848FFF708FB5B
:10134000B8604FF0FF33BB61FB681B6803F002031A
:10135000002B11D0FB78012B07D0022B08D0002BDB
:1013600000D019E01E4BBB6105E01E4BBB6102E0E3
:101370001D4BBB6100BF0FE0FB78012B06D0022B99
:1013800007D0002B08D1194BBB6105E0184BBB619E
:1013900002E0184BBB6100BFFB78174AD35C7B614E
:1013A0007B689B00BA68D21A7B69796801FB03F3FA
:1013B000B2FBF3F3013BFB61FB681B6803F0020324
:1013C000002B04D0FB69002B01D10123FB61FA69DA
:1013D000FB681A612037BD4680BD00BF4081040014
:1013E00040164000C0D8A7008050740180841E00C1
:1013F00040548900002D31015C2F000080B582B07F
:1014000000AF78600B46FB707B68094A934203D0BB
:101410007B68084A934200D100BF7A68FB78104687
:1014200000211A46FFF742FF0837BD4680BD00BFC6
:1014300000A0004000A4004080B582B000AF7860FA
:1014400039607B68174A934203D07B68164A9342FF
:1014500000D100BF7B6800225A637B68134A1A637D
:101460007A683B685B78002B01D0002300E0012301
:10147000104601211A46FFF719FF3B6859683B687F
:101480009A683B681B7B7868FFF73AFF7A683B688D
:101490001B78104600211A46FFF708FF0837BD46A3
:1014A00080BD00BF00A0004000A40040CFFF0100AD
:1014B00080B485B000AF7860194B5B69DBB203F094
:1014C0000F03DBB29B00FB73154B1B6903F0C003DA
:1014D0009B09DAB2FB7B1343FB737B68FA7B9A7040
:1014E0000F4B1B69DBB203F03F03DAB27B685A7023
:1014F0000B4B9B69DBB223F00F03FB73084BDB69DB
:1015000003F0F0031B09DAB2FB7B1343FB737B6828
:10151000FA7B1A701437BD465DF8047B704700BF34
:10152000D0FF0FE090B585B000AF7860FF23FB736C
:1015300000237B730523BB73204A7B6813601BE089
:101540001E4B1B685C6B1D4B1B6893F8292007F131
:101550000D031046D0211A460123A0470346FB7312
:101560007B7B602B00D10AE0BB7B013BBB73134B41
:101570001B689B6B01209847BB7B002BE0D10F4B76
:101580001B687A7B83F82820BB7B002B01D1FF23CB
:1015900000E00023FB7397F90F30002B07D100F018
:1015A0009FFA0346DAB2FB7B1344DBB2FB73FB7B8F
:1015B0005BB218461437BD4690BD00BF9C000020AA
:1015C00090B585B000AF7860FF23FB7300233B73B9
:1015D00000237B730023BB73134B1B68002B01D1CB
:1015E00081231CE0104B1B685C6B0F4B1B6893F84E
:1015F000292007F10C031046FA211A460323A047BD
:101600000346FB733B7B1A037B7B1B011343BA7BB3
:101610001209D2B213431A467B681A60FB7B5BB295
:1016200018461437BD4690BD9C00002080B487B09A
:1016300000AF786000237B6100233B610023FB60E7
:101640007B68DA101C4B1B681B885B00D31A1A4A94
:101650001268528812B202FB03F3DB127B617B68D3
:101660001B11154A126812889B1A7A6812111249C6
:1016700009680988521A02FB03F31B130E4A126809
:10168000928812B202FB03F39B133B610A4B1B6867
:1016900079693A690A445A62074B1B685A6A1346C9
:1016A0009B00134480331B12FB60FB6818461C37F9
:1016B000BD465DF8047B70479C00002090B585B066
:1016C00000AF7860FF23FB7300233B7300237B7321
:1016D0000023BB73134B1B68002B01D181231CE03B
:1016E000104B1B685C6B0F4B1B6893F8292007F1AC
:1016F0000C031046F7211A460323A0470346FB7349
:101700003B7B1A037B7B1B011343BA7B1209D2B2CA
:1017100013431A467B681A60FB7B5BB2184614378A
:10172000BD4690BD9C00002080B487B000AF7860BB
:1017300000233B610023FB6000237B61514B1B684E
:101740005B6A5B10A3F57A433B613B699B103A6986
:10175000921002FB03F3DB124A4A1268128A12B299
:1017600002FB03F3FB60474B1B68DB891BB23A6942
:1017700002FB03F35B00FA681344FB60FB689A10FA
:10178000404B1B689B891BB21B041344FB603D4B01
:101790001B685B891BB23A6992103969891001FB99
:1017A00002F2521302FB03F3DA10364B1B681B895B
:1017B0001BB2396901FB03F35B1013449B143B61BB
:1017C0003B6903F500432F4A1268D28802FB03F3FA
:1017D000DB133B617B685B421A46FB681B13D31A21
:1017E00040F6354202FB03F303F1434303F5A00344
:1017F0007B617B69002B0BDB3B69002B06D07B698F
:101800005A003B69B2FBF3F37B610DE0002332E049
:101810003B69002B06D03B697A69B2FBF3F35B00AE
:101820007B6101E0002326E0164B1B68DB8A1BB2BC
:101830007A69D2087969C90801FB02F2520B02FBEE
:1018400003F31B133B617B699B081A460D4B1B6816
:101850009B8A1BB203FB02F35B13FB603A69FB68D4
:101860001A44084B1B685B8A1BB213441A117B692C
:1018700013447B617B6918461C37BD465DF8047BC9
:10188000704700BF9C00002090B585B000AF786025
:10189000FF23FB7300233B7300237B73114B1B68F7
:1018A000002B01D1812317E00E4B1B685C6B0D4BA5
:1018B0001B6893F8292007F10C031046FD211A46F6
:1018C0000223A0470346FB733B7B1B027A7B134337
:1018D0001A467B681A60FB7B5BB218461437BD461C
:1018E00090BD00BF9C00002080B485B000AF786040
:1018F0000023FB602F4B1B685B6AA3F59633FB60EC
:101900007B689A032B4B1B68DB8B1BB21B05D21A1F
:10191000284B1B681B8C1BB2F96801FB03F3D31A1D
:1019200003F58043DB13234A126892F8222052B257
:10193000F96801FB02F292121E490968097F084604
:10194000F96801FB00F1C91201F5004101FB02F247
:10195000921202F5001217490968498B09B201FB7E
:1019600002F202F50052921302FB03F3FB60FB68E4
:10197000DB13FA68D21302FB03F3DB110D4A126882
:10198000127E02FB03F31B11FA68D31AFB60FB689B
:1019900023EAE373FB60FB68B3F1C85FA8BF4FF0B5
:1019A000C853FB60FB681B1318461437BD465DF82F
:1019B000047B70479C00002090B589B000AFF860B0
:1019C000B9607A60FF23FB7700233B7500237B75AA
:1019D0000023BB750023FB7500233B7600237B7639
:1019E0000023BB760023FB761D4B1B68002B01D127
:1019F00081232FE01A4B1B685C6B194B1B6893F813
:101A0000292007F114031046F7211A460823A0479E
:101A10000346FB773B7D1A037B7D1B011343BA7D95
:101A20001209D2B213431A46FB681A60FB7D1A03EF
:101A30003B7E1B0113437A7E1209D2B213431A462E
:101A4000BB681A60BB7E1B02FA7E13431A467B6892
:101A50001A60FB7F5BB218462437BD4690BD00BFBD
:101A60009C00002080B588B000AFF860B9607A6053
:101A7000FF23FB770023BB6100237B6100233B61D5
:101A8000164B1B68002B01D1812322E007F11801BE
:101A900007F1140207F11003084611461A46FFF732
:101AA0008BFF0346FB777B691846FFF7BFFD0246B5
:101AB000BB681A60BB691846FFF736FE0246FB6832
:101AC0001A603B691846FFF70FFF02467B681A60F1
:101AD000FB7F5BB218462037BD4680BD9C000020CE
:101AE00090B589B000AFFF23FB773B1D00221A6041
:101AF000043300221A60043300221A6004330022E7
:101B00001A60043300221A60043300221A6004337E
:101B100000221A800233794B1B68002B01D18123EC
:101B2000E7E0764B1B685C6B744B1B6893F82920CD
:101B30003B1D104688211A461A23A0470346FB770F
:101B40006E4B1B687A79120291B23A7992B20A43CB
:101B500092B292B21A80694B1B68FA79D2B252B231
:101B6000120291B2BA7992B20A4392B25A80634B8E
:101B70001B687A7AD2B252B2120291B23A7A92B217
:101B80000A4392B29A805D4B1B68FA7A120291B2B4
:101B9000BA7A92B20A4392B292B2DA80574B1B6879
:101BA0007A7BD2B252B2120291B23A7B92B20A431B
:101BB00092B21A81514B1B68FA7BD2B252B2120216
:101BC00091B2BA7B92B20A4392B25A814B4B1B68D4
:101BD0007A7CD2B252B2120291B23A7C92B20A43E9
:101BE00092B29A81454B1B68FA7CD2B252B2120271
:101BF00091B2BA7C92B20A4392B2DA813F4B1B682F
:101C00007A7DD2B252B2120291B23A7D92B20A43B6
:101C100092B21A82394B1B68FA7DD2B252B21202CA
:101C200091B2BA7D92B20A4392B25A82334B1B6888
:101C30007A7ED2B252B2120291B23A7E92B20A4384
:101C400092B29A822D4B1B68FA7ED2B252B2120225
:101C500091B2BA7E92B20A4392B2DA82274B1B68E3
:101C60007A7F1A76254B1B685C6B244B1B6893F8B4
:101C700029203B1D1046E1211A460723A0470346B1
:101C8000DAB2FB7F1344DBB2FB771C4B1B687A791B
:101C9000D2B252B2120291B23A7992B20A4392B2DD
:101CA0005A83164B1B68BA791A77144B1B68FA795A
:101CB000D2B252B2120191B23A7A92B202F00F024B
:101CC00092B20A4392B2DA830C4B1B687A7AD2B290
:101CD00052B2120191B23A7A1209D2B292B20A43C6
:101CE00092B21A84054B1B68BA7AD2B283F82220CA
:101CF000FB7F5BB218462437BD4690BD9C00002098
:101D000090B585B000AF0346FB71FF23FB73002342
:101D1000BB7300237B7300233B730023FB72564B82
:101D20001B68002B01D18123A1E0534B1B6893F862
:101D30002E30BB73BB7BDBB203F01F03DAB2FB793F
:101D40005B01DBB21343DBB2DBB2BB7307F10D0304
:101D5000184600F025FA0346FB737B7B002B3ED030
:101D600000F00AFB0346DAB2FB7B1344DBB2FB73E1
:101D7000414B1B689B6B032098473F4B1B6893F8B4
:101D80002F30FB7207F10B03F5201946012200F0FA
:101D900001FC0346DAB2FB7B1344DBB2FB73364B28
:101DA0001B6893F82D303B7307F10C03F2201946A2
:101DB000012200F0EFFB0346DAB2FB7B1344DBB2F7
:101DC000FB7307F10E03F4201946012200F0E2FB39
:101DD0000346DAB2FB7B1344DBB2FB730FE0264B06
:101DE0001B681C6B244B1B6893F8292007F10E031A
:101DF0001046F4211A460123A0470346FB731E4BED
:101E00001B68FA7983F82A2007F10E03F42019469B
:101E1000012200F0E7FB0346FB73174B1B68BA7BFC
:101E200083F82E2007F10E03F2201946012200F05C
:101E3000D9FB0346DAB2FB7B1344DBB2FB730E4BD8
:101E40001B68BA7B83F82D2007F10E03F520194695
:101E5000012200F0C7FB0346DAB2FB7B1344DBB27E
:101E6000FB73054B1B68BA7B83F82F20FB7B5BB2AF
:101E700018461437BD4690BD9C00002090B585B033
:101E800000AF0346FB71FF23FB730023BB730023EA
:101E90007B7300233B730023FB72534B1B68002BA7
:101EA00001D181239AE0504B1B6893F82E30BB730D
:101EB000BB7BDBB223F01C03DAB2FB799B00DBB205
:101EC00003F01C03DBB21343DBB2DBB2BB7307F1DD
:101ED0000D03184600F064F90346FB737B7B002B6F
:101EE00034D000F049FA0346DAB2FB7B1344DBB28C
:101EF000FB733D4B1B689B6B032098473A4B1B6859
:101F000093F82F30FB7207F10B03F52019460122DD
:101F100000F040FB0346FB73334B1B6893F82D30F6
:101F20003B7307F10C03F2201946012200F032FB4B
:101F30000346DAB2FB7B1344DBB2FB7307F10E03FB
:101F4000F4201946012200F025FB0FE0264B1B6808
:101F50001C6B254B1B6893F8292007F10E031046D4
:101F6000F4211A460123A0470346FB731E4B1B684E
:101F7000FA7983F82B2007F10E03F4201946012289
:101F800000F030FB0346FB73174B1B68BA7B83F8EA
:101F90002E2007F10E03F2201946012200F022FB49
:101FA0000346DAB2FB7B1344DBB2FB730E4B1B68B8
:101FB000BA7B83F82D2007F10E03F5201946012284
:101FC00000F010FB0346DAB2FB7B1344DBB2FB7379
:101FD000054B1B68BA7B83F82F20FB7B5BB218464E
:101FE0001437BD4690BD00BF9C00002090B585B061
:101FF00000AF0346FB71FF23FB730023BB73002379
:102000007B7300233B730023FB72644B1B68002B24
:1020100001D18123BCE0614B1B6893F82D30BB7369
:10202000BB7BDBB223F00703DAB2FB7903F00703D3
:10203000DBB21343DBB2DBB2BB7307F10B03184611
:1020400000F0AEF80346FB73FB7A002B3ED000F0A5
:1020500093F90346DAB2FB7B1344DBB2FB734F4BBD
:102060001B689B6B032098474C4B1B6893F82F30E1
:102070003B7307F10C03F5201946012200F08AFAA0
:102080000346DAB2FB7B1344DBB2FB7307F10E03AA
:10209000F2201946012200F07DFA0346DAB2FB7BFA
:1020A0001344DBB2FB733D4B1B6893F82E307B73FC
:1020B00007F10D03F4201946012200F06BFA0346E4
:1020C000DAB2FB7B1344DBB2FB7325E0334B1B68B6
:1020D0001C6B324B1B6893F8292007F10E03104646
:1020E000F2211A460123A0470346DAB2FB7B1344D0
:1020F000DBB2FB73294B1B6893F82E307B7307F11F
:102100000D03F4201946012200F044FA0346DAB226
:10211000FB7B1344DBB2FB73204B1B68FA7983F81B
:102120002C2007F10E03F4201946012200F05AFA80
:102130000346DAB2FB7B1344DBB2FB73174B1B681D
:10214000BA7B83F82E2007F10E03F22019460122F4
:1021500000F048FA0346DAB2FB7B1344DBB2FB73B0
:102160000E4B1B68BA7B83F82D2007F10E03F52078
:102170001946012200F036FA0346DAB2FB7B13441B
:10218000DBB2FB73054B1B68BA7B83F82F20FB7B0C
:102190005BB218461437BD4690BD00BF9C000020BE
:1021A00090B585B000AF7860FF23FB730023BB734D
:1021B000104B1B68002B01D1812316E00D4B1B68CF
:1021C0005C6B0C4B1B6893F8292007F10E0310463B
:1021D000F4211A460123A0470346FB73BB7B03F09F
:1021E0000303DAB27B681A70FB7B5BB218461437C4
:1021F000BD4690BD9C00002090B585B000AF034661
:10220000FB71FF23FB730023BB7300237B7300234D
:102210003B730023FB720023BB72564B1B68002BE1
:1022200001D18123A0E0FB79032B00F29A80514B6E
:102230001B6893F82E30BB73BB7BDBB223F0030328
:10224000DAB2FB7903F00303DBB21343DBB2DBB298
:10225000BB7307F10D031846FFF7A2FF0346FB739C
:102260007B7B002B3AD000F087F80346DAB2FB7B89
:102270001344DBB2FB733F4B1B689B6B03209847F7
:102280003C4B1B6893F82F30FB7207F10B03F520D2
:102290001946012200F07EF90346FB73354B1B689B
:1022A00093F82D303B7307F10C03F22019460122FD
:1022B00000F070F90346DAB2FB7B1344DBB2FB7328
:1022C00007F10E03F4201946012200F063F90346DA
:1022D000DAB2FB7B1344DBB2FB730FE0254B1B68C8
:1022E0001C6B244B1B6893F8292007F10E03104642
:1022F000F4211A460123A0470346FB7307F10A03A2
:10230000F4201946012200F06DF90346FB73194BC6
:102310001B68BA7A83F82E2007F10A03F2201946C7
:10232000012200F05FF90346DAB2FB7B1344DBB213
:10233000FB73104B1B68BA7A83F82D2007F10A0350
:10234000F5201946012200F04DF90346DAB2FB7B75
:102350001344DBB2FB73074B1B68BA7A83F82F2058
:1023600001E0FE23FB73FB7B5BB218461437BD46CE
:1023700090BD00BF9C00002090B583B000AFFF234C
:10238000FB71B623BB710D4B1B68002B01D1812360
:102390000FE00A4B1B681C6B084B1B6893F8292045
:1023A000BB1D1046E0211A460123A0470346FB71DE
:1023B000FB795BB218460C37BD4690BD9C000020EF
:1023C00090B585B000AF7860FF23FB730023BB732B
:1023D000104B1B68002B01D1812315E00D4B1B68AE
:1023E0005C6B0C4B1B6893F8292007F10E03104619
:1023F000F5211A460123A0470346FB73BB7B5B090B
:10240000DAB27B681A70FB7B5BB218461437BD46A4
:1024100090BD00BF9C00002090B585B000AF034682
:10242000FB71FF23FB730023BB7300237B7300232B
:102430003B730023FB72564B1B68002B01D1812399
:10244000A0E0534B1B6893F82F30BB73BB7BDBB210
:1024500003F01F03DAB2FB795B01DBB21343DBB29B
:10246000DBB2BB7307F10C031846FFF799FE034676
:10247000FB733B7B002B3ED0FFF77EFF0346DAB2B7
:10248000FB7B1344DBB2FB73414B1B689B6B03204C
:10249000984707F10E03F5201946012200F07AF85B
:1024A0000346DAB2FB7B1344DBB2FB73384B1B6889
:1024B00093F82D30FB7207F10B03F220194601222D
:1024C00000F068F80346DAB2FB7B1344DBB2FB731F
:1024D0002F4B1B6893F82E307B7307F10D03F4200C
:1024E0001946012200F056F80346DAB2FB7B13448A
:1024F000DBB2FB730FE0264B1B681C6B244B1B6885
:1025000093F8292007F10E031046F5211A460123FE
:10251000A0470346FB7307F10E03F420194601227E
:1025200000F060F80346DAB2FB7B1344DBB2FB73C6
:10253000174B1B68BA7B83F82E2007F10E03F2209D
:102540001946012200F04EF80346DAB2FB7B134431
:10255000DBB2FB730E4B1B68BA7B83F82D2007F1AF
:102560000E03F5201946012200F03CF80346DAB2CA
:10257000FB7B1344DBB2FB73054B1B68BA7B83F810
:102580002F20FB7B5BB218461437BD4690BD00BFC1
:102590009C00002090B585B000AF03463960FB7108
:1025A0001346BB71FF23FB730D4B1B68002B01D13E
:1025B00081230FE00A4B1B681C6B094B1B6893F8C7
:1025C0002910FA79BB79084611463A68A0470346B4
:1025D000FB73FB7B5BB218461437BD4690BD00BF52
:1025E0009C00002090B585B000AF03463960FB71B8
:1025F0001346BB71FF23FB730D4B1B68002B01D1EE
:1026000081230FE00A4B1B685C6B094B1B6893F836
:102610002910FA79BB79084611463A68A047034663
:10262000FB73FB7B5BB218461437BD4690BD00BF01
:102630009C00002080B58CB000AF002387F82B30C1
:1026400000237B6200233B620023FB6100237B614C
:102650000023BB610023FB6000233B6100237B6000
:102660000023BB604FF0FF33FB6200F099F84B484A
:10267000FEF758FF0346FB620320FFF7BDFD03464C
:102680001A46FB6A1344FB620120FFF7AFFC0346C6
:102690001A46FB6A1344FB620220FFF7EFFB034676
:1026A0001A46FB6A1344FB620320FFF729FB03462B
:1026B0001A46FB6A1344FB620020FFF7ADFE034697
:1026C0001A46FB6A1344FB6207F12B031846FFF717
:1026D00077FE03461A46FB6A1344FB6207F12403A4
:1026E0001846FEF76DFF03461A46FB6A1344FB6269
:1026F00007F120031846FEF7E1FF03461A46FB6A7E
:102700001344FB6207F11C031846FFF7BDF80346AC
:102710001A46FB6A1344FB6207F1240107F1200209
:1027200007F11C03084611461A46FFF745F9034610
:102730001A46FB6A1344FB627B6A1846FEF776FF73
:1027400003467B613B6A1846FEF7EEFF0346FB60DB
:10275000FB691846FFF7C8F803467B6007F10C03D6
:10276000191D07F114031A1D3B1D043308461146B9
:102770001A46FFF777F903461A46FB6A1344FB62D1
:102780000020FFF739FD03461A46FB6A1344FB623B
:10279000FB6A18463037BD4680BD00BFA40000204C
:1027A00080B400AF094B0A4A1A63084B094A5A63BE
:1027B000064B762283F82920044B074A9A630023AC
:1027C0005BB21846BD465DF8047B7047A40000204C
:1027D000DD27000085290000F529000080B487B0BE
:1027E00000AF3A601A460346FB710B46BB711346B5
:1027F0007B7100233B610023FB75BB793B72002397
:10280000FB750DE0FB7D0133FA7D39680A441278CF
:1028100007F118010B4403F8102CFB7D0133FB7505
:10282000FA7D7B799A42EDD3204AFB795B005362B3
:102830001E4B01225A6000BF1C4B9B6A03F04003F1
:10284000002BF9D0194B40221A63184ABB79536206
:1028500000BF164B9B6A03F04003002BF9D0134BCB
:1028600040221A6313E0114A3B681B7853623B68AD
:1028700001333B6000BF0D4B9B6A03F04003002B0C
:10288000F9D00A4B40221A637B79013B7B717B793B
:10289000002BE8D1054B02225A603B69DBB25BB2E8
:1028A00018461C37BD465DF8047B704700A4004005
:1028B00080B485B000AF3A601A460346FB710B4600
:1028C000BB7113467B712E4AFB795B0053622C4B24
:1028D00001225A6000BF2A4B9B6A03F04003002B81
:1028E000F9D0274B40221A63254ABB79536200BFB7
:1028F000234B9B6A03F04003002BF9D0204B40226E
:102900001A631F4B01225A601D4BED225A6200BF11
:102910001B4B9B6A03F04003002BF9D0184B40225D
:102920001A6314E000BF164B9B6A03F02003002BD0
:10293000F9D0134BDB69DAB23B681A703B6801339C
:102940003B600F4B04225A607B79013B7B717B79A2
:10295000002BE7D10A4B08225A600023FB6002E0FB
:10296000FB680133FB60FB68632BF9DD044B02223B
:102970005A60002318461437BD465DF8047B704743
:1029800000A4004080B586B000AF3A601A46034606
:10299000FB710B46BB7113467B7100233B61002327
:1029A000BB600023FB600023FB75BB793B72F879A9
:1029B000B97907F108027B79FFF77AFF0023FB75ED
:1029C0000CE0FB7D3A681344FA7D07F118010A44D4
:1029D00012F8102C1A70FB7D0133FB75FA7D7B79A0
:1029E0009A42EED33B69DBB25BB218461837BD465C
:1029F00080BD00BF80B485B000AF78600023FB606D
:102A000002E0FB680133FB60FB68B3F57A7FF8DB1B
:102A10001437BD465DF8047B704700BF80B483B0B7
:102A200000AF03463960FB71FB79002B0DD0FB79B9
:102A3000012B0AD0FB79022B07D0FB79032B04D0A2
:102A4000FB79042B01D0FB79052B0949FA793B6806
:102A5000012000FA03F318461346DB0013449B00E1
:102A60000B44103358600C37BD465DF8047B70474B
:102A70000060004080B483B000AF03463960FB7152
:102A8000FB79002B0DD0FB79012B0AD0FB79022BAF
:102A900007D0FB79032B04D0FB79042B01D0FB7901
:102AA000052B0949FA793B68012000FA03F318461F
:102AB0001346DB0013449B000B44103318600C37A3
:102AC000BD465DF8047B70470060004080B582B071
:102AD00000AF0C4B1B687B603B461846FEF7E8FCDA
:102AE0007B681B0E0F2B0AD93B78032B07D1064AB4
:102AF000054B1B6823F0500343F0100313600837A5
:102B0000BD4680BDFC81E00FC0800C4080B400AFAA
:102B100072B6084B1B68B3F1FF3F04D0054B1B682E
:102B20000133044A1360034B1B681846BD465DF829
:102B3000047B70479800002080B483B000AF0C4B3A
:102B40001B68002B0DD00A4B1B68013B084A136021
:102B5000074B1B687B607B68002B00D162B67B68EB
:102B600000E0002318460C37BD465DF8047B704733
:102B70009800002080B483B000AF786039607B6833
:102B80003A689A620C37BD465DF8047B704700BF17
:102B900080B483B000AF78607B681B6A18460C373E
:102BA000BD465DF8047B704780B483B000AF7860A9
:102BB00039607A683B6803331B0113445B6818462D
:102BC0000C37BD465DF8047B704700BF80B485B00C
:102BD00000AFF860B9607A60FA68BB681B01134403
:102BE00038337A685A601437BD465DF8047B704705
:102BF00080B483B000AF786039607B683A689A61CE
:102C00000C37BD465DF8047B704700BF80B483B0CD
:102C100000AF78607B68DB6918460C37BD465DF80D
:102C2000047B704780B582B000AF0346FB71FFF7AD
:102C30006DFFFB79054AD25C0132D1B2034AD1540F
:102C4000FFF77AFF0837BD4680BD00BFE0000020D7
:102C500080B500AF0A480121FDF70EFE09480121A9
:102C6000FDF70AFE0420022104220023FEF798FA51
:102C70000420032104220023FEF792FA80BD00BF46
:102C80004081040000D2040080B582B000AF03464A
:102C9000FB71FB79002B04D104200221FFF7EAFE2F
:102CA00003E004200321FFF7E5FE0837BD4680BDA1
:102CB00080B582B000AF0346FB71FB79002B04D1D5
:102CC00004200221FFF7AAFE03E004200321FFF7FE
:102CD000A5FE0837BD4680BD80B582B000AFFFF7C6
:102CE00015FF1948FFF754FF03467B601648032180
:102CF000FFF740FF7B6803F00103002B0CD001209D
:102D0000FFF7C2FF114A114B1B6823F00103136048
:102D10000D4A7B68936212E00C4A0C4B1B6843F02F
:102D2000010313600120FFF7C3FF074A7B6893622A
:102D300000BF064B9B6803F00103002BF9D0FFF79F
:102D4000FBFE0837BD4680BD002008400010004053
:102D500080B582B000AF10480121FFF749FF0E484F
:102D60000021FFF721FF78600B48FFF74FFF024675
:102D70007B689A4205D1084800210022FFF726FF10
:102D800006E0064B1B88044800211A46FFF71EFF89
:102D90000837BD4680BD00BF00000140080000208C
:102DA00090B585B000AF18480121FDF765FD174BC0
:102DB00000229A63154A154B9B6B43F00103936302
:102DC000124A124B9B6B43F002039363104B3C4639
:102DD0000FCB84E80F003B460C481946FEF72CFB4E
:102DE0000A4B4FF6FF721A6308480121FEF706FBF3
:102DF000064B9B6803F00103002B02D0034B2022FB
:102E00005A601437BD4690BD00C2040000A40040C3
:102E10008C2F000080B582B000AF0346FB71FB79B8
:102E2000032B10D1052001210122FEF787F812485B
:102E30000921FDF727FF11480121FDF71DFD0320A2
:102E4000FFF7F0FE15E0002001210122FEF776F8E1
:102E50000B480121FDF710FD032001210122FEF79F
:102E60006DF805480221FDF70DFF04480121FDF72B
:102E700003FD0837BD4680BD02001A000043020072
:102E80004081040080B582B000AFFFF71FFEFFF75E
:102E9000DFFE0020FFF7BEFFFFF782FF02200521C3
:102EA0000A220123FEF77CF9022004210A220123D1
:102EB000FEF776F9FFF7BEFB7860FEE708B5074B33
:102EC000044613B10021AFF30080054B1868836AF4
:102ED00003B19847204600F033F800BF000000001F
:102EE000A02F00000E4B70B51E460E4C0025E41AB4
:102EF000A410A54204D056F8253098470135F8E7CC
:102F000000F020F8084B094C1E46E41AA4100025D6
:102F1000A54204D056F8253098470135F8E770BD32
:102F20006C0000206C0000206C000020700000206D
:102F300003460244934202D003F8011BFAE77047AC
:102F4000FEE700BFF8B500BFF8BC08BC9E4670475E
:102F5000F8B500BFF8BC08BC9E46704708091108C8
:102F6000010000000100000000000000000200005D
:102F70000001030000000000000000000700000046
:102F8000070700003D0000000000000000010000F5
:102F90000000000060670100020000004300000024
:082FA0000C00002000000000FD
:082FA80094D1FF7F010000003D
:102FB000006CDC02008000005E01000000000000E8
:102FC0000000000000000000000000000000000001
:102FD0000000000000000000000000009C2F000026
:102FE00000000000000000000000000000000000E1
:102FF00000000000000000000000000000000000D1
:1030000000000000000000000000000000000000C0
:1030100000000000000000000000000005010000AA
:08302000E100000000000000C7
:04000003000001B147
:00000001FF
