:1000000000800020B1010000DD010000DD010000E2
:10001000DD010000DD010000DD010000DD01000068
:10002000DD010000DD010000DD010000DD01000058
:10003000DD010000DD010000DD010000DD01000048
:10004000FD0F0000DD0100005D190000DD01000072
:10005000DD010000DD010000DD010000DD01000028
:10006000DD010000DD010000DD010000DD01000018
:10007000DD010000DD010000DD010000DD01000008
:10008000DD010000DD010000DD010000DD010000F8
:10009000DD010000DD010000DD010000DD010000E8
:1000A000DD010000DD01000029180000DD01000075
:1000B000DD010000DD010000DD010000DD010000C8
:1000C000DD010000DD010000DD010000DD010000B8
:1000D000DD010000DD010000DD010000DD010000A8
:1000E00010B5054C237833B9044B13B10448AFF372
:1000F00000800123237010BD780000200000000064
:10010000841A0000084B10B51BB108480849AFF32A
:1001100000800848036803B910BD074B002BFBD0D3
:10012000BDE81040184700BF00000000841A00001E
:100130007C0000207400002000000000154B002B04
:1001400008BF134B9D46A3F5803A00218B460F460E
:100150001348144A121A01F06FFC0F4B002B00D009
:1001600098470E4B002B00D0984700200021040038
:100170000D000D48002802D00C48AFF3008001F0BC
:1001800035FC2000290001F011FC01F01BFC00BF30
:1001900000000800008000200000000000000000B7
:1001A00078000020A00000200000000000000000F7
:1001B000064880470649074A074B9A42BEBF51F896
:1001C000040B42F8040BF8E7FFF7B8FF5D030000EB
:1001D000901A00000000002078000020FEE700BF19
:1001E00080B400AF044BDB6C1B0EDBB21846BD467F
:1001F0005DF8047B704700BFB081E00F80B582B02E
:1002000000AF00F01FF87860074B5B6803F00F0346
:100210001A467B68D3407B60044A7B6813607B6826
:1002200018460837BD4680BD00800C409C00002069
:1002300080B400AF024B1846BD465DF8047B7047A2
:10024000006CDC0280B582B000AF334BDB6A03F494
:100250007053B3F5805F0AD0B3F5005F03D0B3F5F8
:10026000006F08D00BE02D4B1B687B6047E04FF41C
:1002700000437B6043E02A4B1B687B603FE0264BDA
:10028000DB6803F4E063B3F5007F1BD0B3F5007FB8
:1002900005D8002B24D0B3F5807F16D02BE0B3F522
:1002A000806F09D0B3F5A06F03D0B3F5407F06D0BF
:1002B00021E01C4B7B6021E01B4B7B601EE01B4B55
:1002C0007B601BE01A4B7B6018E0FFF789FF034659
:1002D000122B02D9174B7B6010E0174B7B600DE0AF
:1002E000FFF77EFF0346122B02D9144B7B6005E01B
:1002F000134B7B6002E000237B6000BF00BF064B16
:100300001B6803F4E0339B0B01337A68B2FBF3F311
:1003100018460837BD4680BD00800C400400002010
:1003200000000020003FAB01406F4001809FD500DE
:10033000C0D8A70040B56400C0CF6A00804F12004B
:1003400040420F0080B400AF034B1B681846BD4607
:100350005DF8047B704700BF0000002080B400AF50
:10036000BD465DF8047B704780B400AF4FF4004396
:100370001846BD465DF8047B704700BF80B400AFEF
:100380004FF47A731846BD465DF8047B704700BF92
:1003900080B400AF034B1B681846BD465DF8047B74
:1003A000704700BF0400002080B487B000AFF86041
:1003B000B9607A60FB6803F10473DA00BB68134428
:1003C0009B007B617B697A681A601C37BD465DF8CB
:1003D000047B704780B485B000AF786039607B687B
:1003E00003F10473DA003B6813449B00FB60FB6875
:1003F0001B6818461437BD465DF8047B704700BF84
:1004000080B485B000AF78607B68002B04D07B6837
:10041000B3F5004F00D800BF7B68B3FA83F3C3F194
:100420001F03FB60FB6818461437BD465DF8047B6C
:10043000704700BF80B400AF044BDB6C1B0EDBB217
:100440001846BD465DF8047B704700BFB081E00FE1
:1004500080B400AF054BDB6C03F47F031B0CDBB2F5
:100460001846BD465DF8047B704700BFB081E00FC1
:1004700080B582B000AFFFF7EBFF03464A2B04D0F4
:10048000792B02D0482B21D022E0144B1B699BB260
:1004900003F03F039BB21B02FB80104B9B6903F0F0
:1004A000F0039AB2FB881343FB800C4BDB6903F02B
:1004B000F0031B099AB2FB881343FB80FB88B3F55A
:1004C000017F01D3064B04E0064B02E0054B00E040
:1004D000002318460837BD4680BD00BFD0FF0FE09F
:1004E00000366E010048E80180B584B000AF786046
:1004F00039607A683B689A428CBF01230023DBB2E3
:10050000FB6006481E21FA68FFF74EFF04480821E9
:10051000FA68FFF749FF1037BD4680BD00800C40E8
:1005200004800C4080B582B000AF07481E21FFF761
:1005300051FF786005480821FFF74CFF38607B6861
:1005400018460837BD4680BD00800C4004800C4032
:1005500080B582B000AF214B5B6903F4E063B3F573
:10056000007F1CD0B3F5007F05D8002B25D0B3F554
:10057000807F1FD02AE0B3F5C06F24D0B3F5E06FC1
:100580001ED0B3F5407F21D1FFF754FF0346122B55
:1005900002D9134B7B601CE0124B7B6019E0FFF724
:1005A00049FF0346122B02D90F4B7B6011E00F4B22
:1005B0007B600EE00E4B7B600BE00E4B7B6008E037
:1005C0000D4B7B6005E00D4B7B6002E000237B6000
:1005D00000BF7B6818460837BD4680BD00800C40D0
:1005E000804F120040420F0040B56400C0CF6A0047
:1005F000C0D8A700809FD500406F4001003FAB01ED
:1006000080B582B000AF0D4800F08EFA0346FB7053
:10061000FB78072B05D0082B07D1FFF713FE786076
:1006200006E0FFF795FF786002E000237B6000BFE3
:100630007B6818460837BD4680BD00BF06000C0029
:1006400080B485B000AF7860284BDB6B002B14BF03
:1006500001230023BB72254B41F67132DA63234B31
:100660005B6803F00703FB60FB68012B01D9042BD7
:1006700002D10023FB7202E00123FB7200BF7B6802
:100680001B4A934207D9FB7A002B01D0052300E0D7
:100690000423FB6016E07B68154A93420BD87B6805
:1006A000144A934207D9FB7A002B01D0032300E0C0
:1006B0000123FB6006E0FB7A002B01D0022300E05F
:1006C0000023FB600949094B5B6823F00702FB68C4
:1006D00013434B60BB7A002B02D0044B0022DA6339
:1006E0001437BD465DF8047B704700BF00000C4026
:1006F0000048E8010024F40080B500AFFFF798FD42
:1007000003461846FFF79CFF80BD00BF90B585B03B
:1007100000AF78600023BB607B68344A934203D00B
:10072000334A934200D000E000BF786800F0FCF943
:100730000346FB607B682D4A934203D02C4A9342C8
:1007400006D00CE02B4B9B6A03F00303FB6006E032
:10075000284B9B6A03F00C039B08FB6000BFFB68FF
:10076000032B3AD801A252F823F000BFA3070000E0
:100770007D070000850700008D070000FFF7F4FDEE
:10078000B8602DE0FFF704FEB86029E0FFF736FD02
:100790000446FFF7C7FE0346013324FA03F3BB60A8
:1007A0001EE00023BB607B68104A934203D07B6845
:1007B0000F4A934210D10F4B9A6A7B680B498B42C8
:1007C00001D1102300E0142322FA03F3002B03D0FD
:1007D000FFF7D4FDB86003E002E00023BB6000BF78
:1007E000BB6818461437BD4690BD00BF02001A0012
:1007F00003001C0000800C4080B483B000AF786020
:10080000094B5B6D03F00103002B00D006E000BF35
:10081000054B1A6D7B681340002BF9D10C37BD4690
:100820005DF8047B704700BF00800C4080B582B04B
:1008300000AF104800F078F90346FB70FB78032BFB
:1008400007D0082B09D0022B0BD1FFF7A1FD786050
:100850000AE0FFF789FD786006E0FFF7F3FC7860B7
:1008600002E000237B6000BF7B6818460837BD4666
:1008700080BD00BF0723220090B587B000AF78602D
:100880000B46FB7000233B617B681B0A03F00F03E0
:10089000013B092B49D801A252F823F0E1080000DE
:1008A000E7080000C50800002B0900002B09000024
:1008B000ED080000F70800002B0900002B090000DC
:1008C000010900001B4B7B611B4800F041F8044606
:1008D000FFF7CEFD034620461946FFF705FE12E05E
:1008E000164B7B610FE0164B7B610CE0154B7B6177
:1008F00001233B6107E0144B7B6110233B6102E065
:10090000124B7B6100BF7B681B0B03F01F03FB6076
:100910003B69002B02D03869FFF76EFFFB787869DE
:10092000F9681A46FFF740FD00E000BF1C37BD46DE
:1009300090BD00BF40800C400043020008800C4086
:1009400044800C4058800C4060800C4078800C4003
:1009500090B585B000AF78607B6803F47813B3F589
:10096000B01F00F0AB80B3F5B01F1AD8B3F5402F1D
:1009700000F0BF80B3F5402F08D8B3F5003F3CD05E
:10098000B3F5802F2DD0002B27D0BEE0B3F5801F0C
:100990003CD0B3F5A01F47D0B3F5602F00F0AD8079
:1009A000B3E0B3F5081F00F0AC80B3F5081F0AD818
:1009B000B3F5D01F25D0B3F5E01F7AD0B3F5C01F33
:1009C00000F08980A1E0B3F5201F4ED0B3F5281FB9
:1009D00062D0B3F5181F35D097E0FFF733FCF8600D
:1009E00096E0FFF72FFCF8604C4B9B6803F00F0379
:1009F0001A46FB68D340FB608AE0FFF7FFFBF86014
:100A000086E04748FFF782FEF86081E04448FFF740
:100A10007DFEF860414B9B6E03F0F0031B091A4604
:100A2000FB68D340FB6073E03D48FFF76FFEF86062
:100A30003A4B9B6E03F470631B0A1A46FB68D34063
:100A4000FB6065E03648FFF761FEF860334B9B6E54
:100A500003F440531C0B1020FFF7D2FC0346234441
:100A60001A46FB68D340FB6052E02D48FFF74EFE6C
:100A7000F8602A4B9B6E03F440531B0B1A46FB682D
:100A8000D340FB60254BDB6F03F007030133FA68AB
:100A9000B2FBF3F3FB603BE02148FFF737FEF86061
:100AA0001E4B9B6E03F003031A46FB68D340FB60AA
:100AB0002EE01C48FFF72AFEF86029E01948FFF7EE
:100AC00025FEF860154B1B6F03F003031A46FB6805
:100AD000D340FB601CE01348FFF718FEF8600F4B93
:100AE0001B6F03F030031B091A46FB68D340FB6001
:100AF0000EE0FFF785FDF8600AE0FFF729FDF860DA
:100B000006E0FFF793FEF86002E00023FB6000BF01
:100B1000FB6818461437BD4690BD00BF00800C40EE
:100B200002001A0003001C0080B485B000AF78609A
:100B30000123FB737B6803F00F03BB60BB68013BC1
:100B4000062B00F2938001A252F823F0690B0000FB
:100B50009F0B0000DB0B00006D0C00006D0C000013
:100B6000170C0000390C0000454BDB6A03F470538E
:100B7000B3F5805F09D0B3F5005F03D0B3F5006F24
:100B800006D008E00223FB7308E00323FB7305E0B3
:100B90000423FB7302E00523FB7300BF69E0384BBD
:100BA0009B6A03F00303022B06D0032B07D0012B13
:100BB00008D10323FB730FE00223FB730CE0062331
:100BC000FB7309E02E4B9B6A03F48033002B02D0A9
:100BD0000923FB7300E000BF4BE0294B9B6A03F045
:100BE0000C03082B06D00C2B07D0042B08D10323B1
:100BF000FB730FE00223FB730CE00623FB7309E099
:100C00001F4B9B6A03F48013002B02D00923FB7354
:100C100000E000BF2DE01A4B1B6803F08053002B4F
:100C200003D0B3F1805F03D023E00723FB7302E01E
:100C30000823FB7300BF1CE0114BDB6A03F4603335
:100C4000B3F5803F08D0B3F5003F08D0B3F5004FAF
:100C500008D10823FB7308E00223FB7305E003239C
:100C6000FB7302E00123FB7300BF02E00023FB7370
:100C700000BFFB7B18461437BD465DF8047B704708
:100C800000800C4090B589B000AF78600B46FB70D7
:100C90000323FB610323FB7600233B617B6803F0A6
:100CA0000F03FB60FB68013B062B00F2348101A2BD
:100CB00052F823F0D10C0000BD0D0000BD0D000066
:100CC000170F0000170F0000850E0000AF0E000088
:100CD000FB78023B072B00F2228101A252F823F09D
:100CE000010D00000B0D0000150D00005F0D000050
:100CF0001F0F00001F0F00001F0F00001F0F00003C
:100D00000423FB610023FB7639E00323FB6101230D
:100D1000FB7634E00223FB610223FB76FFF7A8FB9E
:100D200003465C1CFFF7A4FB034620461946FFF769
:100D3000DBFBFFF707FB02467C4B9A4206D97C4A55
:100D40007B4B1B6843F06003136018E0784A784BD4
:100D50001B6823F0600343F0200313600FE00123BE
:100D6000FB610323FB76FFF783FB03465C1CFFF765
:100D70007FFB034620461946FFF7B6FB00BFFB7E0C
:100D800018460121012200F0D9F8FFF7B5FC684AA6
:100D9000FB6953626748FFF7DBFD0446FFF768FB1A
:100DA000034620461946FFF79FFB00F093F9FFF733
:100DB00025FAB860B868FFF743FCADE0FB78013B6B
:100DC000082B00F2AE8001A252F823F0F10D0000D2
:100DD000F70D0000070E0000230F0000230F000096
:100DE000170E0000230F0000230F00003B0E000031
:100DF00000237B6126E000200121012200F09EF803
:100E000002237B611EE001200121012200F096F8FF
:100E100001237B6116E0FFF7F1F9B860FFF728FBCB
:100E20000346B8681946FFF75FFB434804210122D7
:100E3000FFF7BAFA03237B6104E000237B610123FF
:100E40003B6100BFFB68022B0DD13949384B9B6ACF
:100E500023F4803323F003037A691A433B691B04AC
:100E600013438B6258E03249314B9B6A23F4801361
:100E700023F00C037A6992001A433B691B05134364
:100E80008B6249E0FB78072B02D0082B07D049E0A2
:100E9000274A274B1B6823F08053136006E0244A3F
:100EA000234B1B6843F08053136000BF34E0FB7892
:100EB000032B14D0082B22D0022B00D032E00020CC
:100EC0000121012200F03AF8194B40225A6200BF7A
:100ED000174BDB6A03F48033002BF9D01AE00120B2
:100EE0000121012200F02AF8114B60225A6200BF52
:100EF0000F4BDB6A03F40033002BF9D00AE00C4BF4
:100F000020225A6200BF0A4BDB6A03F40043002B25
:100F1000F9D000BF00E000BFFFF704FB02E000BF14
:100F200000E000BF2437BD4690BD00BF0048E80187
:100F300000800C400043020040800C4080B586B029
:100F400000AF0346FB710B46BB7113467B71FB7907
:100F5000042B4AD801A252F823F000BFA90F0000C9
:100F60009B0F00007F0F0000710F00008D0F00002D
:100F700001233B610223FB6001237B611DE004230D
:100F80003B610823FB6003237B6116E010233B6178
:100F90002023FB6005237B610FE040233B6180231E
:100FA000FB6007237B6108E04FF480733B614FF4E3
:100FB0000073FB6009237B6100BFBB79002B0ED05F
:100FC0000C4A3B6913627B79002B0BD000BF0A48A7
:100FD0007969FFF7FFF90346002BF8D002E0054AD4
:100FE000FB68136200F076F800E000BF1837BD46DA
:100FF00080BD00BF00800C402C800C4080B58AB0C2
:1010000000AF334B03F580531B68BB61304B03F5D6
:1010100080530C331B68BA691340BB612C4B9B6B2C
:101020007B61BA697B6913403B620023FB6149E045
:1010300000237B623BE03B6A03F00103002B30D0CE
:10104000234B9B683B6101227B6A02FA03F3FB603E
:101050001F4B03F580530833FA681A607B6A1B0143
:101060003A691344DB68BB60BB68002B19D0BB68CE
:101070001B7A7B60BB681B7A83F00103DAB2BB6822
:101080001A72BB681B68002B0BD0BB681B68786AA0
:101090007A68002A14BF01220022D1B2BA685268CD
:1010A00098473B6A5B083B627B6A01337B623B6A21
:1010B000002BC0D17B69DA43BB6913403B62FB69FB
:1010C0000133FB61FB69012BB2DD2837BD4680BDD2
:1010D00000200C4080B400AF034BDB6A034A13606E
:1010E000BD465DF8047B704700800C4094000020F2
:1010F00080B483B000AF03463960FB71FB79002BED
:101100000DD0FB79012B0AD0FB79022B07D0FB799C
:10111000032B04D0FB79042B01D0FB79052B094963
:10112000FA793B68012000FA03F318461346DB0006
:1011300013449B000B44103358600C37BD465DF8D8
:10114000047B70470060004080B483B000AF03466A
:101150003960FB71FB79002B0DD0FB79012B0AD094
:10116000FB79022B07D0FB79032B04D0FB79042BEE
:1011700001D0FB79052B0949FA793B68012000FA77
:1011800003F318461346DB0013449B000B44103353
:1011900018600C37BD465DF8047B70470060004066
:1011A00090B585B000AFB9607B600346FB73134612
:1011B000BB73FB7B002B0DD0FB7B012B0AD0FB7B91
:1011C000022B07D0FB7B032B04D0FB7B042B01D02D
:1011D000FB7B052BBB7B002B0DD07B68002B05D048
:1011E000FB7B1846B968FFF7AFFF04E0FB7B1846AE
:1011F000B968FFF77DFFBB68072B1CD82A4CFA7B28
:101200002948F97B0B46DB000B449B0003445B68D9
:10121000B968890008460F218140C9430B40B97B5A
:10122000B8688000814019431346DB0013449B00DB
:101230002344596024E01C4CFA7B1B48F97B0B4685
:10124000DB000B449B00034408331968BB6803F1BF
:101250008043083B9B0018460F238340DB43194023
:10126000B87BBB6803F18043083B9B0000FA03F3A3
:1012700019431346DB0013449B00234408331960D1
:10128000BB7B002B0DD17B68002B05D0FB7B184668
:10129000B968FFF759FF04E0FB7B1846B968FFF710
:1012A00027FF1437BD4690BD0060004080B485B074
:1012B00000AF7860194B5B69DBB203F00F03DBB260
:1012C0009B00FB73154B1B6903F0C0039B09DAB24B
:1012D000FB7B1343FB737B68FA7B9A700F4B1B6994
:1012E000DBB203F03F03DAB27B685A700B4B9B69A9
:1012F000DBB223F00F03FB73084BDB6903F0F00351
:101300001B09DAB2FB7B1343FB737B68FA7B1A7011
:101310001437BD465DF8047B704700BFD0FF0FE077
:1013200080B483B000AF786039607B683B4A9342F9
:101330000BD07B683A4A934207D07B68394A934284
:1013400003D07B68384A934200D100BF3B681B78CA
:1013500083F00103DBB2002B02D07B6802225A60CB
:101360007B6800225A623B689B781A063B68DB78F0
:101370001B041A433B689B799B021A433B68DB7949
:101380001B0213433A68127A1A433B685B78002BBE
:1013900001D0402300E000231A433B685B7A002B16
:1013A00001D0802300E000231A433B689B7A002B86
:1013B00001D0202300E000231A433B68DB7A002B96
:1013C00001D0102300E000231A433B681B79002B57
:1013D00002D04FF4005300E000231A433B685B79CE
:1013E000002B02D04FF0805300E000231A433B68EB
:1013F0001B7B002B01D0082300E000231A437B68ED
:101400001A603B681B78002B02D07B6801225A606F
:101410000C37BD465DF8047B704700BF00000140FB
:101420000004014000080140000C014080B485B078
:1014300000AFF860B9607A60FB682B4A93420BD02A
:10144000FB682A4A934207D0FB68294A934203D09B
:10145000FB68284A934200D100BF7B681B789A063C
:101460007B685B781B061A437B689B781B041A43D6
:101470007B68DB781B031A437B681B799B021A434A
:101480007B685B791B0213437A6892791A437B6805
:10149000DB79002B02D04FF4001300E000231A4345
:1014A0007B681B7A002B02D04FF4801300E00023EE
:1014B0001A437B685B7A002B01D0102300E00023E5
:1014C0001A437B689B7A002B01D0042300E00023A1
:1014D0001A43F968BB6803331B010B441A601437C5
:1014E000BD465DF8047B70470000014000040140E8
:1014F00000080140000C014080B483B000AF0346F7
:10150000FB71084997F907305B09FA7902F01F026D
:10151000012000FA02F241F823200C37BD465DF8A5
:10152000047B704700E100E080B483B000AF034665
:101530003960FB71FB79002B0DD0FB79012B0AD0B0
:10154000FB79022B07D0FB79032B04D0FB79042B0A
:1015500001D0FB79052B0949FA793B68012000FA93
:1015600003F318461346DB0013449B000B4410336F
:1015700058600C37BD465DF8047B70470060004042
:1015800080B483B000AF03463960FB71FB79002B58
:101590000DD0FB79012B0AD0FB79022B07D0FB7908
:1015A000032B04D0FB79042B01D0FB79052B0949CF
:1015B000FA793B68012000FA03F318461346DB0072
:1015C00013449B000B44103318600C37BD465DF884
:1015D000047B70470060004080B582B000AF0C4BC8
:1015E0001B687B603B461846FFF760FE7B681B0E5E
:1015F0000F2B0AD93B78032B07D1064A054B1B68F2
:1016000023F0500343F0100313600837BD4680BD3C
:10161000FC81E00FC0800C4080B400AF72B6084B74
:101620001B68B3F1FF3F04D0054B1B680133044A2C
:101630001360034B1B681846BD465DF8047B70477A
:101640009800002080B483B000AF0C4B1B68002BC7
:101650000DD00A4B1B68013B084A1360074B1B68FF
:101660007B607B68002B00D162B67B6800E00023C2
:1016700018460C37BD465DF8047B70479800002083
:1016800080B483B000AF786039607B683A689A6252
:101690000C37BD465DF8047B704700BF80B483B053
:1016A00000AF78607B681B6A18460C37BD465DF852
:1016B000047B704780B483B000AF786039607A688B
:1016C0003B6803331B0113445B6818460C37BD4667
:1016D0005DF8047B704700BF80B485B000AFF86050
:1016E000B9607A60FA68BB681B01134438337A68C2
:1016F0005A601437BD465DF8047B704780B483B0F0
:1017000000AF786039607B683A689A610C37BD46F3
:101710005DF8047B704700BF80B483B000AF786091
:1017200039607B68DA683B681A437B68DA600C379B
:10173000BD465DF8047B704780B483B000AF78602D
:101740007B68DB6918460C37BD465DF8047B704743
:1017500080B483B000AF786039607B683A68DA6142
:101760000C37BD465DF8047B704700BF80B500AF05
:101770000A480121FFF780F809480121FFF77CF8AA
:101780000420022104220023FFF70AFD0420032184
:1017900004220023FFF704FD80BD00BF4081040048
:1017A00000D2040080B582B000AF0346FB71FB7924
:1017B000002B04D104200221FFF7E2FE03E0042005
:1017C0000321FFF7DDFE0837BD4680BD80B582B03E
:1017D00000AF0346FB71FB79002B04D104200221EA
:1017E000FFF7A2FE03E004200321FFF79DFE083768
:1017F000BD4680BD80B500AF002001210122FFF76A
:101800009DFB06480221FFF73DFA05480121FFF73D
:1018100033F804480121FFF72FF880BD02001A00B9
:10182000005204000043020080B582B000AFFFF711
:10183000F3FE1948FFF732FF03467B601648032189
:10184000FFF71EFF7B6803F00103002B0CD0012083
:10185000FFF7A8FF114A114B1B6823F00103136027
:101860000D4A7B68936212E00C4A0C4B1B6843F0F4
:10187000010313600120FFF7A9FF074A7B68936209
:1018800000BF064B9B6803F00103002BF9D0FFF764
:10189000D9FE0837BD4680BD00200840001000403A
:1018A00080B588B000AF0320012104220023FFF798
:1018B00077FC264A07F114031068516803C31189A5
:1018C000927A19809A7007F11403214800211A4670
:1018D000FFF7ACFD1E4A1E4B9B6A43F4403343F0B6
:1018E000010393621B48FFF733F802461A4BA3FB30
:1018F00002235B0B16481946FFF72AFF1448002104
:101900000022FFF7E9FE3B1D00221A60043300228B
:101910001A60043300221A60043300221A70013363
:1019200001233B7101237B710623BB710848012110
:10193000FFF7F2FE0220FFF7DFFD3B1D04481946CA
:10194000FFF7EEFC2037BD4680BD00BF701A0000D7
:1019500000000140408104005917B7D180B582B022
:1019600000AF10480121FFF7C9FE0E480021FFF724
:10197000A1FE78600B48FFF7DFFE02467B689A42C3
:1019800005D1084800210022FFF7A6FE06E0064B1D
:101990001B88044800211A46FFF79EFE0837BD4603
:1019A00080BD00BF000001400800002080B500AFEE
:1019B000FFF712FEFFF71EFFFFF7D8FEFFF770FFDD
:1019C000FEE700BF08B5074B044613B10021AFF393
:1019D0000080054B1868836A03B19847204600F0E1
:1019E00033F800BF00000000801A00000E4B70B5F5
:1019F0001E460E4C0025E41AA410A54204D056F849
:101A0000253098470135F8E700F020F8084B094CDD
:101A10001E46E41AA4100025A54204D056F825302D
:101A200098470135F8E770BD6C0000206C0000207D
:101A30006C0000207000002003460244934202D054
:101A400003F8011BFAE77047FEE700BFF8B500BFD7
:101A5000F8BC08BC9E467047F8B500BFF8BC08BC8F
:101A60009E467047010000000100000000000000D9
:101A7000000200000001030000000043000000001D
:081A80000C0000200000000032
:081A8800B4E6FF7F010000003D
:101A9000006CDC02008000005E010000000000001D
:101AA0000000000000000000000000000000000036
:101AB0000000000000000000000000007B1A000091
:101AC0000000000000000000000000000000000016
:101AD0000000000000000000000000000000000006
:101AE00000000000000000000000000000000000F6
:101AF00000000000000000000000000005010000E0
:081B0000E100000000000000FC
:04000003000001B147
:00000001FF
