S00F0000696F7446696E616C2E733337AF
S113000000800020B1010000DD010000DD010000DE
S1130010DD010000DD010000DD010000DD01000064
S1130020DD010000DD010000DD010000DD01000054
S1130030DD010000DD010000DD010000DD01000044
S11300408D0B0000DD010000DD010000DD0100007A
S1130050DD010000DD010000DD010000DD01000024
S1130060DD010000DD010000DD010000DD01000014
S1130070DD010000DD010000DD010000DD01000004
S1130080DD010000DD010000DD010000DD010000F4
S1130090DD010000DD010000DD010000DD010000E4
S11300A0DD010000DD010000DD010000DD010000D4
S11300B0DD010000DD010000DD010000DD010000C4
S11300C0DD010000DD010000DD010000DD010000B4
S11300D0DD010000DD010000DD010000DD010000A4
S11300E010B5054C237833B9044B13B10448AFF36E
S11300F000800123237010BD740000200000000064
S1130100FC100000084B10B51BB108480849AFF3B8
S113011000800848036803B910BD074B002BFBD0CF
S1130120BDE81040184700BF00000000FC100000AC
S1130130780000207000002000000000154B002B08
S113014008BF134B9D46A3F5803A00218B460F460A
S11301501348144A121A00F0B7FF0F4B002B00D0BB
S113016098470E4B002B00D0984700200021040034
S11301700D000D48002802D00C48AFF3008000F0B9
S11301807DFF2000290000F041FF00F063FF00BF65
S113019000000800008000200000000000000000B3
S11301A07400002094000020000000000000000003
S11301B0064880470649074A074B9A42BEBF51F892
S11301C0040B42F8040BF8E7FFF7B8FF3103000013
S11301D0081100000000002074000020FEE700BFAA
S11301E080B400AF044BDB6C1B0EDBB21846BD467B
S11301F05DF8047B704700BFB081E00F80B582B02A
S113020000AF00F015F87860074B5B6803F00F034C
S11302101A467B68D3407B60044A7B6813607B6822
S113022018460837BD4680BD00800C409000002071
S113023080B582B000AF334BDB6A03F47053B3F57F
S1130240805F0AD0B3F5005F03D0B3F5006F08D028
S11302500BE02D4B1B687B6047E04FF400437B6051
S113026043E02A4B1B687B603FE0264BDB6803F4CA
S1130270E063B3F5007F1BD0B3F5007F05D8002BF6
S113028024D0B3F5807F16D02BE0B3F5806F09D06E
S1130290B3F5A06F03D0B3F5407F06D021E01C4B2B
S11302A07B6021E01B4B7B601EE01B4B7B601BE0F3
S11302B01A4B7B6018E0FFF793FF0346122B02D919
S11302C0174B7B6010E0174B7B600DE0FFF788FF56
S11302D00346122B02D9144B7B6005E0134B7B6061
S11302E002E000237B6000BF00BF064B1B6803F4E1
S11302F0E0339B0B01337A68B2FBF3F318460837FB
S1130300BD4680BD00800C40040000200000002099
S1130310003FAB01406F4001809FD500C0D8A700CB
S113032040B56400C0CF6A00804F120040420F0005
S113033080B400AFBD465DF8047B704780B400AF65
S11303404FF400431846BD465DF8047B704700BF78
S113035080B400AF4FF47A731846BD465DF8047B51
S1130360704700BF80B400AF034B1B681846BD46FE
S11303705DF8047B704700BF0400002080B487B0A0
S113038000AFF860B9607A60FB6803F10473DA00C7
S1130390BB6813449B007B617B697A681A601C37D5
S11303A0BD465DF8047B704780B485B000AF7860CB
S11303B039607B6803F10473DA003B6813449B00E3
S11303C0FB60FB681B6818461437BD465DF8047B68
S11303D0704700BF80B485B000AF78607B68002BA5
S11303E004D07B68B3F5004F00D800BF7B68B3FA34
S11303F083F3C3F11F03FB60FB6818461437BD4643
S11304005DF8047B704700BF80B400AF044BDB6C25
S11304101B0EDBB21846BD465DF8047B704700BF77
S1130420B081E00F80B400AF054BDB6C03F47F03B5
S11304301B0CDBB21846BD465DF8047B704700BF59
S1130440B081E00F80B582B000AFFFF7EBFF034649
S11304504A2B04D0792B02D0482B21D022E0144B14
S11304601B699BB203F03F039BB21B02FB80104B42
S11304709B6903F0F0039AB2FB881343FB800C4B97
S1130480DB6903F0F0031B099AB2FB881343FB807A
S1130490FB88B3F5017F01D3064B04E0064B02E071
S11304A0054B00E0002318460837BD4680BD00BF59
S11304B0D0FF0FE000366E010048E80180B584B03B
S11304C000AF786039607A683B689A428CBF012338
S11304D00023DBB2FB6006481E21FA68FFF74EFFDB
S11304E004480821FA68FFF749FF1037BD4680BD6C
S11304F000800C4004800C4080B582B000AF0748F7
S11305001E21FFF751FF786005480821FFF74CFFD3
S113051038607B6818460837BD4680BD00800C40B3
S113052004800C4080B582B000AF214B5B6903F4BA
S1130530E063B3F5007F1CD0B3F5007F05D8002B32
S113054025D0B3F5807F1FD02AE0B3F5C06F24D047
S1130550B3F5E06F1ED0B3F5407F21D1FFF754FF10
S11305600346122B02D9134B7B601CE0124B7B60B9
S113057019E0FFF749FF0346122B02D90F4B7B60AA
S113058011E00F4B7B600EE00E4B7B600BE00E4BDB
S11305907B6008E00D4B7B6005E00D4B7B6002E067
S11305A000237B6000BF7B6818460837BD4680BDCA
S11305B000800C40804F120040420F0040B56400A0
S11305C0C0CF6A00C0D8A700809FD500406F40010B
S11305D0003FAB0180B582B000AF0D4800F028FAAF
S11305E00346FB70FB78072B05D0082B07D1FFF7D8
S11305F01FFE786006E0FFF795FF786002E00023B5
S11306007B6000BF7B6818460837BD4680BD00BFCD
S113061006000C0090B585B000AF78600023BB6085
S11306207B68344A934203D0334A934200D000E0BB
S113063000BF786800F0FCF90346FB607B682D4A34
S1130640934203D02C4A934206D00CE02B4B9B6A76
S113065003F00303FB6006E0284B9B6A03F00C03E2
S11306609B08FB6000BFFB68032B3AD801A252F839
S113067023F000BFAB060000850600008D060000D5
S113068095060000FFF75AFEB8602DE0FFF76AFEFA
S1130690B86029E0FFF7B2FD0446FFF72DFF0346DB
S11306A0013324FA03F3BB601EE00023BB607B68C4
S11306B0104A934203D07B680F4A934210D10F4BE8
S11306C09A6A7B680B498B4201D1102300E0142302
S11306D022FA03F3002B03D0FFF73AFEB86003E0DD
S11306E002E00023BB6000BFBB6818461437BD4658
S11306F090BD00BF02001A0003001C0000800C40E3
S113070080B483B000AF7860094B5B6D03F00103E4
S1130710002B00D006E000BF054B1A6D7B68134028
S1130720002BF9D10C37BD465DF8047B704700BF40
S113073000800C4080B582B000AF104800F078F91A
S11307400346FB70FB78032B07D0082B09D0022B40
S11307500BD1FFF707FE78600AE0FFF7EFFD786042
S113076006E0FFF765FD786002E000237B6000BFD0
S11307707B6818460837BD4680BD00BF07232200AA
S113078090B587B000AF78600B46FB7000233B61E7
S11307907B681B0A03F00F03013B092B49D801A214
S11307A052F823F0E9070000EF070000CD0700002E
S11307B03308000033080000F5070000FF070000BD
S11307C03308000033080000090800001B4B7B615C
S11307D01B4800F041F80446FFF734FE0346204668
S11307E01946FFF76BFE12E0164B7B610FE0164BC8
S11307F07B610CE0154B7B6101233B6107E0144BEB
S11308007B6110233B6102E0124B7B6100BF7B687C
S11308101B0B03F01F03FB603B69002B02D03869FC
S1130820FFF76EFFFB787869F9681A46FFF7A6FDB3
S113083000E000BF1C37BD4690BD00BF40800C40A7
S11308400043020008800C4044800C4058800C4057
S113085060800C4078800C4090B585B000AF786023
S11308607B6803F47813B3F5B01F00F0AB80B3F5E5
S1130870B01F1AD8B3F5402F00F0BF80B3F5402F56
S113088008D8B3F5003F3CD0B3F5802F2DD0002B12
S113089027D0BEE0B3F5801F3CD0B3F5A01F47D0EE
S11308A0B3F5602F00F0AD80B3E0B3F5081F00F09E
S11308B0AC80B3F5081F0AD8B3F5D01F25D0B3F523
S11308C0E01F7AD0B3F5C01F00F08980A1E0B3F532
S11308D0201F4ED0B3F5281F62D0B3F5181F35D0B2
S11308E097E0FFF7A5FCF86096E0FFF7A1FCF8603D
S11308F04C4B9B6803F00F031A46FB68D340FB6024
S11309008AE0FFF77BFCF86086E04748FFF782FE49
S1130910F86081E04448FFF77DFEF860414B9B6E30
S113092003F0F0031B091A46FB68D340FB6073E035
S11309303D48FFF76FFEF8603A4B9B6E03F470631B
S11309401B0A1A46FB68D340FB6065E03648FFF794
S113095061FEF860334B9B6E03F440531C0B102074
S1130960FFF738FD034623441A46FB68D340FB6077
S113097052E02D48FFF74EFEF8602A4B9B6E03F4BD
S113098040531B0B1A46FB68D340FB60254BDB6FBF
S113099003F007030133FA68B2FBF3F3FB603BE0B7
S11309A02148FFF737FEF8601E4B9B6E03F00303EC
S11309B01A46FB68D340FB602EE01C48FFF72AFE72
S11309C0F86029E01948FFF725FEF860154B1B6F06
S11309D003F003031A46FB68D340FB601CE0134892
S11309E0FFF718FEF8600F4B1B6F03F030031B0971
S11309F01A46FB68D340FB600EE0FFF7EBFDF8609E
S1130A000AE0FFF78FFDF86006E0FFF793FEF86059
S1130A1002E00023FB6000BFFB6818461437BD46A4
S1130A2090BD00BF00800C4002001A0003001C00AF
S1130A3080B485B000AF78600123FB737B6803F05A
S1130A400F03BB60BB68013B062B00F2938001A23D
S1130A5052F823F0710A0000A70A0000E30A00001C
S1130A60750B0000750B00001F0B0000410B00000C
S1130A70454BDB6A03F47053B3F5805F09D0B3F5DB
S1130A80005F03D0B3F5006F06D008E00223FB73C8
S1130A9008E00323FB7305E00423FB7302E0052352
S1130AA0FB7300BF69E0384B9B6A03F00303022B1E
S1130AB006D0032B07D0012B08D10323FB730FE0CF
S1130AC00223FB730CE00623FB7309E02E4B9B6AA5
S1130AD003F48033002B02D00923FB7300E000BF32
S1130AE04BE0294B9B6A03F00C03082B06D00C2B1C
S1130AF007D0042B08D10323FB730FE00223FB73FD
S1130B000CE00623FB7309E01F4B9B6A03F480137C
S1130B10002B02D00923FB7300E000BF2DE01A4B29
S1130B201B6803F08053002B03D0B3F1805F03D024
S1130B3023E00723FB7302E00823FB7300BF1CE0E0
S1130B40114BDB6A03F46033B3F5803F08D0B3F58F
S1130B50003F08D0B3F5004F08D10823FB7308E029
S1130B600223FB7305E00323FB7302E00123FB7301
S1130B7000BF02E00023FB7300BFFB7B1846143761
S1130B80BD465DF8047B704700800C4080B58AB098
S1130B9000AF334B03F580531B68BB61304B03F547
S1130BA080530C331B68BA691340BB612C4B9B6B9D
S1130BB07B61BA697B6913403B620023FB6149E0B6
S1130BC000237B623BE03B6A03F00103002B30D03F
S1130BD0234B9B683B6101227B6A02FA03F3FB60AF
S1130BE01F4B03F580530833FA681A607B6A1B01B4
S1130BF03A691344DB68BB60BB68002B19D0BB683F
S1130C001B7A7B60BB681B7A83F00103DAB2BB6892
S1130C101A72BB681B68002B0BD0BB681B68786A10
S1130C207A68002A14BF01220022D1B2BA6852683D
S1130C3098473B6A5B083B627B6A01337B623B6A91
S1130C40002BC0D17B69DA43BB6913403B62FB696B
S1130C500133FB61FB69012BB2DD2837BD4680BD42
S1130C6000200C4080B483B000AF03463960FB71B0
S1130C70FB79002B0DD0FB79012B0AD0FB79022BD9
S1130C8007D0FB79032B04D0FB79042B01D0FB792B
S1130C90052B0949FA793B68012000FA03F3184649
S1130CA01346DB0013449B000B44103358600C378D
S1130CB0BD465DF8047B70470060004080B483B09B
S1130CC000AF03463960FB71FB79002B0DD0FB7933
S1130CD0012B0AD0FB79022B07D0FB79032B04D01C
S1130CE0FB79042B01D0FB79052B0949FA793B6880
S1130CF0012000FA03F318461346DB0013449B005B
S1130D000B44103318600C37BD465DF8047B704704
S1130D100060004090B585B000AFB9607B600346C9
S1130D20FB731346BB73FB7B002B0DD0FB7B012BAA
S1130D300AD0FB7B022B07D0FB7B032B04D0FB7B6D
S1130D40042B01D0FB7B052BBB7B002B0DD07B68D8
S1130D50002B05D0FB7B1846B968FFF7AFFF04E012
S1130D60FB7B1846B968FFF77DFFBB68072B1CD8CF
S1130D702A4CFA7B2948F97B0B46DB000B449B0089
S1130D8003445B68B968890008460F218140C94360
S1130D900B40B97BB8688000814019431346DB00DF
S1130DA013449B002344596024E01C4CFA7B1B48E9
S1130DB0F97B0B46DB000B449B00034408331968A2
S1130DC0BB6803F18043083B9B0018460F23834014
S1130DD0DB431940B87BBB6803F18043083B9B00AD
S1130DE000FA03F319431346DB0013449B00234426
S1130DF008331960BB7B002B0DD17B68002B05D019
S1130E00FB7B1846B968FFF759FF04E0FB7B1846E3
S1130E10B968FFF727FF1437BD4690BD0060004056
S1130E2080B485B000AF7860194B5B69DBB203F026
S1130E300F03DBB29B00FB73154B1B6903F0C0036C
S1130E409B09DAB2FB7B1343FB737B68FA7B9A70D2
S1130E500F4B1B69DBB203F03F03DAB27B685A70B5
S1130E600B4B9B69DBB223F00F03FB73084BDB696D
S1130E7003F0F0031B09DAB2FB7B1343FB737B68BB
S1130E80FA7B1A701437BD465DF8047B704700BFC7
S1130E90D0FF0FE080B483B000AF03463960FB712C
S1130EA0FB79002B0DD0FB79012B0AD0FB79022BA7
S1130EB007D0FB79032B04D0FB79042B01D0FB79F9
S1130EC0052B0949FA793B68012000FA03F3184617
S1130ED01346DB0013449B000B44103358600C375B
S1130EE0BD465DF8047B70470060004080B483B069
S1130EF000AF03463960FB71FB79002B0DD0FB7901
S1130F00012B0AD0FB79022B07D0FB79032B04D0E9
S1130F10FB79042B01D0FB79052B0949FA793B684D
S1130F20012000FA03F318461346DB0013449B0028
S1130F300B44103318600C37BD465DF8047B7047D2
S1130F400060004080B582B000AF0C4B1B687B6032
S1130F503B461846FFF764FF7B681B0E0F2B0AD92C
S1130F603B78032B07D1064A054B1B6823F050033B
S1130F7043F0100313600837BD4680BDFC81E00FC9
S1130F80C0800C4080B500AF0A480121FFF7F8FB90
S1130F9009480121FFF7F4FB042002210422002365
S1130FA0FFF7B8FE0420032104220023FFF7B2FE5A
S1130FB080BD00BF4081040000D2040080B582B02F
S1130FC000AF0346FB71FB79002B04D104200221FE
S1130FD0FFF78CFF03E004200321FFF787FF0837A6
S1130FE0BD4680BD80B582B000AF0346FB71FB797E
S1130FF0002B04D104200221FFF74CFF03E004205E
S11310000321FFF747FF0837BD4680BD80B582B096
S113101000AFFFF797FFFFF7B5FF0120FFF7CEFF03
S113102000237B6002E07B6801337B607B68084AB5
S11310309342F8DD0120FFF7D5FF00233B6002E077
S11310403B6801333B603B68014A9342F8DDE4E7C7
S11310503F420F0008B5074B044613B10021AFF31C
S11310600080054B1868836A03B19847204600F056
S113107033F800BF00000000F81000000E4B70B5FC
S11310801E460E4C0025E41AA410A54204D056F8BE
S1131090253098470135F8E700F020F8084B094C53
S11310A01E46E41AA4100025A54204D056F82530A3
S11310B098470135F8E770BD6800002068000020FB
S11310C0680000206C00002003460244934202D0D2
S11310D003F8011BFAE77047FEE700BFF8B500BF4D
S11310E0F8BC08BC9E467047F8B500BFF8BC08BC05
S11310F09E467047430000000800002000000000E6
S10B11003CF0FF7F0100000038
S1131108006CDC0200800000000000000000000009
S113111800000000000000000000000000000000C3
S11311280000000000000000F410000000000000AF
S113113800000000000000000000000000000000A3
S11311480000000000000000000000000000000093
S11311580000000000000000000000000000000083
S1131168000000000000000005010000E10000008C
S1071178000000006F
S90301B14A
